:0501CA00344310100198
:0901C100C2A5D2A4C2A3D2A0225F
:10017E00E4FEEF3392A2EF25E0FFD2A3A2A1E43377
:08018E004207C2A30EBE08EAFD
:010196002246
:10019700C2A412017EAC07AF0512017ED2A4AF0440
:0101A7002235
:0C01A800C2A412017EE4FF12017ED2A46A
:0101B4002228
:06011E008B168A178918F8
:10012400C2A412017EAD07E4FCECC395195017E498
:10013400FF12017EAB16AA17A9188C82758300EFF3
:0A0144001200C10C80E3D2A4AF0545
:01014E00228E
:06014F008B168A178918C7
:10015500C2A412017EAD07E4FCECC395195015ABA2
:1001650016AA17A9188C82758300120094FF120134
:080175007E0C80E5D2A4AF0569
:01017D00225F
:1000E300C2A57BFF7A0179CA7519057F2A12014FD0
:1000F300E4FD7F211201970D7F221201977D1E7F60
:10010300251201977D067F311201970D7F2612017B
:0B011300977D0F7F20120197D2A522DC
:100003001201C11200E37580FF7F071201A88F2040
:100013003006117B007A0079097519067F61120198
:100023001E750801AD207F27120197E50860DAE409
:10003300F508E50DB4110BE50EB41106C291D29289
:10004300801EE50DB4220BE50EB42206D291C292B6
:100053008022E50DB4330FE50EB4330AD291C29278
:10006300C293D29480A3E50DB4440FE50EB4440AC1
:10007300C291D292D293C294808FE50D6455708958
:10008300E50E64557083D291D292D293D29402003A
:010093000C60
:030000000201B545
:0C01B500787FE4F6D8FD7581200200037D
:10009400BB010CE58229F582E5833AF583E0225021
:1000A40006E92582F8E622BBFE06E92582F8E2226B
:0D00B400E58229F582E5833AF583E4932285
:1000C100F8BB010DE58229F582E5833AF583E8F075
:1000D100225006E92582C8F622BBFE05E92582C821
:0200E100F22209
:00000001FF
