:10059800D7F3D7AA0A00536D61727420466C796943
:1005A8006E67204361720043757272656E742053E2
:1005B800746174653A005475726E204C65667400F7
:1005C80057616974696E6720666F7220636F6D6D1D
:1005D800656E643A2E2E2E2E2E2E0A00D3D2D7AA5E
:1005E8000A005475726E20526967687400C7B0BDFE
:1005F800F80A00476F204261636B00BAF3CDCB0A5B
:0A06080000476F204168656164003F
:1008D500E4F592F591F596F595F5B2F5B1F5B4F522
:0608E500B3F5CAF5C922BB
:1007E700C28312046D7FFF1208BD7F64120912E4F1
:1007F700FF1208BD7F641209121208EB7F64120909
:06080700127F010209123C
:1000030020C8717F1412091230C803020244C2CD02
:1000130030C8FDE4FF1208BD751001E4F511F512B7
:10002300751301751411751511FB7A0079101206F9
:100033007B7F3212091212080DEF70FA7BFF7A05EB
:1000430079981207BE7BFF7A05799E7D017F0F1297
:1000530006127BFF7A05799E7D087F0F1206127BBD
:10006300FF7A0579AF7D047F141206127BFF7A05B0
:1000730079BE807530C9030200FF7F141209123064
:10008300C903020244C2CD30C9FDE4FF1208BDE436
:10009300F510751101751201F513751422751522EA
:1000A300FB7A00791012067B7F3212091212080DB7
:1000B300EF70FA7BFF7A0579E41207BE7BFF7A05BE
:1000C300799E7D017F0F1206127BFF7A05799E7D53
:1000D300087F0F1206127BFF7A0579AF7D047F1428
:1000E3001206127BFF7A0579EA7D057F1E1206123E
:1000F3007BFF7A0579C81207BED2CD2220C57A7F4D
:100103001412091230C503020244C2CD30C5FDE406
:10011300FF1208BD751001E4F511751201F5137591
:100123001433751533FB7A00791012067B7F321274
:10013300091212080DEF70FA7BFF7A0579F51207A1
:10014300BE7BFF7A0579C81207BE7BFF7A05799ECD
:100153007D017F0F1206127BFF7A05799E7D087F52
:100163000F1206127BFF7A0579AF7D047F14120606
:10017300127BFF7A0579FB807E30C0030202047F85
:100183001412091230C003020244C2CD30C0FDE490
:10019300FF1208BDE4F510751101F5127513017511
:1001A3001444751544FB7A00791012067B7F3212D2
:1001B300091212080DEF70FA7BFF7A067903120712
:1001C300BE7BFF7A0579C81207BE7BFF7A05799E4D
:1001D3007D017F0F1206127BFF7A05799E7D087FD2
:1001E3000F1206127BFF7A0579AF7D047F14120686
:1001F300127BFF7A0679097D057F1E120612D2CD86
:1002030022751001751101751201751301751455CD
:100213007515557B007A00791012067B7F3212091F
:100223001212080DEF70FA7BFF7A05799E7D017F2C
:100233000F1206127BFF7A05799E7D077F0F120648
:02024300122285
:10071F001208D51208511207E77FC81209127BFF82
:10072F007A0579C81207BE7BFF7A05799E7D017F16
:10073F000F1206127BFF7A05799E7D087F0F120636
:0F074F0012D2CD7DFF7F2712090112000380F225
:1008510053877F759850438E40538EFE53890F43C3
:0D0861008920758BDC758DDCC2ABD28E2238
:08092F008F993099FDC2992255
:1007BE008B088A09890AAB08AA09A90A1206D96008
:1007CE0017050AE50A7002050914F91206D9FF3356
:0907DE0095E0FE12092F80DE22D5
:070937000516344310100106
:1008A400E4FEEF3392A6EF25E0FFD281A282E43387
:0808B4004207C2810EBE08EAF2
:0108BC002219
:10090100C2A71208A4AC07AF051208A4D2A7AF046E
:0109110022C3
:0C092200C2A71208A4E4FF1208A4D2A788
:01092E0022A6
:06075E008B0C8A0D890ED0
:10076400C2A71208A4AD07E4FCECC3950F5018AB64
:100774000C050EE50EAA0D7002050D14F91206D92A
:0B078400FF1208A40C80E2D2A7AF0512
:01078F002247
:10067B008B088A09890AC2807B007A007916750F6C
:10068B00057F3012075E7B007A007916750F057FA8
:10069B002A12075EAB08AA09A90A750F067FA012DA
:1006AB00075EE4FD7F211209010D7F221209017DF6
:1006BB000A7F241209017D1E7F251209017D077F08
:0E06CB00261209017D0E7F20120901D2802225
:10080D007F071209228F202005033004137DFF7FFF
:10081D0027120901C2A77FE11208A4D2A77F0022E7
:03082D007F012226
:0F0912007D527C03ED1D70011C144C70F7DFF15A
:0109210022B3
:100245000000000000000000002F00000000070073
:10025500070000147F147F1400242A7F2A120062ED
:100265006408132300364955225000000503000099
:1002750000001C224100000041221C000014083E21
:1002850008140008083E0808000000A060000008E7
:10029500080808080000606000000020100804023B
:1002A500003E5149453E0000427F400000426151F9
:1002B5004946002141454B31001814127F10002793
:1002C50045454539003C4A49493000017109050356
:1002D50000364949493600064949291E0000363687
:1002E50000000000563600000008142241000014EA
:1002F50014141414000041221408000201510906C7
:1003050000324959513E007C1211127C007F494947
:100315004936003E41414122007F4141221C007F78
:1003250049494941007F09090901003E4149497A86
:10033500007F0808087F0000417F41000020404100
:100345003F01007F08142241007F40404040007F6C
:10035500020C027F007F0408107F003E4141413EB0
:10036500007F09090906003E4151215E007F0919F8
:1003750029460046494949310001017F0101003FF5
:100385004040403F001F2040201F003F4038403F75
:1003950000631408146300070870080700615149D9
:1003A500454300007F41410000552A552A5500006C
:1003B50041417F00000402010204004040404040EA
:1003C500000001020400002054545478007F484482
:1003D500443800384444442000384444487F0038B9
:1003E5005454541800087E0901020018A4A4A47CE2
:1003F500007F080404780000447D400000408084AC
:100405007D00007F102844000000417F4000007CF3
:1004150004180478007C08040478003844444438FF
:1004250000FC242424180018242418FC007C08044B
:10043500040800485454542000043F444020003C24
:100445004040207C001C2040201C003C4030403CAB
:10045500004428102844001CA0A0A07C004464543B
:080465004C4414141414141487
:100830007E08D285C2CAAD061EED6014EF30E70413
:10084000D2CB8002C2CBD2CAC2CAEF25E0FF80E67B
:010850002285
:0D07900024B0FF12079D7F0112079D7F100E
:10079D007E08C285C2CAAD061EED6014EF30E704B7
:1007AD00D2CB8002C2CBD2CAC2CAEF25E0FF80E60F
:0107BD002219
:10086E00AC07ED24B0FF12079DEC54F0C4540F44B6
:0C087E0010FF12079DEC540FFF02079DB5
:0208BD00AC0786
:1008BF00E4FBEB120790E4FAAF041208300ABA8097
:0508CF00F70BBB08ED72
:0108D4002201
:1008EB00E4FCEC120790E4FBE4FF1208300BBB8036
:0508FB00F70CBC08ED44
:0109000022D4
:10088A00EF4E60157D377C05ED1DAA0470011C4AE8
:09089A0070F6EF1F70EA1E80E702
:0108A3002232
:10046D00D2CAC2847F327E0012088AD2847FAE1235
:10047D00079DE4FF1207987F4012079D7F811207A9
:10048D009D7FCF12079D7FA112079D7FC812079DEB
:10049D007FA612079D7FA812079D7F3F12079D7FA4
:1004AD00D312079DE4FF12079D7FD512079D7F8014
:1004BD0012079D7FD912079D7FF112079D7FDA12DA
:1004CD00079D7F1212079D7FDB12079D7F4012074C
:1004DD009D7F2012079D7F0212079D7F8D12079D24
:1004ED007F1412079D7FA412079D7FA612079D7F83
:0F04FD00AF12079DE4FF1208BDE4FDFF02086E79
:0A0612008F088D098B0A8A0B890CF2
:10061C00E4F50DFCF50EAB0AAA0BA90C850E827540
:10062C0083001206F2604724E0F50DE508D3947EB2
:10063C004005E4F5080509AD09AF0812086EE4FCA5
:10064C0075F006E50DA42445F582E5F03402F5833A
:10065C00E5822CF582E43583F583E493FF120830B0
:0E066C000CBC06DC74062508F508050E80A8F7
:01067A00225D
:0300000002050CEA
:0C050C00787FE4F6D8FD758120020553CD
:1006D900BB010689828A83E0225002E722BBFE021F
:0906E900E32289828A83E4932252
:1006F200BB010CE58229F582E5833AF583E02250BD
:1007020006E92582F8E622BBFE06E92582F8E22206
:0D071200E58229F582E5833AF583E4932220
:1005180002071FE493A3F8E493A34003F68001F2D3
:1005280008DFF48029E493A3F85407240CC8C333E4
:10053800C4540F4420C8834004F456800146F6DFB3
:10054800E4800B0102040810204080900937E47E03
:10055800019360BCA3FF543F30E509541FFEE493A8
:10056800A360010ECF54C025E060A840B8E493A36F
:10057800FAE493A3F8E493A3C8C582C8CAC583CA9A
:10058800F0A3C8C582C8CAC583CADFE9DEE780BE52
:01093E0000B8
:00000001FF
